{
  "contractName": "Pool",
  "abi": [
    {
      "inputs": [
        {
          "internalType": "address",
          "name": "_mainCoinAddress",
          "type": "address"
        },
        {
          "internalType": "address",
          "name": "_walletAddress",
          "type": "address"
        }
      ],
      "stateMutability": "nonpayable",
      "type": "constructor"
    },
    {
      "anonymous": false,
      "inputs": [
        {
          "indexed": false,
          "internalType": "address",
          "name": "investor",
          "type": "address"
        },
        {
          "indexed": false,
          "internalType": "uint256",
          "name": "amount",
          "type": "uint256"
        }
      ],
      "name": "LogInvestMade",
      "type": "event"
    },
    {
      "inputs": [],
      "name": "mainCoinToken",
      "outputs": [
        {
          "internalType": "contract ERC20",
          "name": "",
          "type": "address"
        }
      ],
      "stateMutability": "view",
      "type": "function",
      "constant": true
    },
    {
      "inputs": [],
      "name": "projectToken",
      "outputs": [
        {
          "internalType": "contract ERC20",
          "name": "",
          "type": "address"
        }
      ],
      "stateMutability": "view",
      "type": "function",
      "constant": true
    },
    {
      "inputs": [
        {
          "internalType": "uint256",
          "name": "_endDateTime",
          "type": "uint256"
        }
      ],
      "name": "editPoolData",
      "outputs": [],
      "stateMutability": "nonpayable",
      "type": "function"
    },
    {
      "inputs": [],
      "name": "getPoolData",
      "outputs": [
        {
          "components": [
            {
              "components": [
                {
                  "internalType": "uint256",
                  "name": "projectTokenAmount",
                  "type": "uint256"
                },
                {
                  "internalType": "address",
                  "name": "wallet",
                  "type": "address"
                },
                {
                  "internalType": "bool",
                  "name": "isWhitelisted",
                  "type": "bool"
                }
              ],
              "internalType": "struct Pool.Investor[]",
              "name": "investors",
              "type": "tuple[]"
            },
            {
              "internalType": "uint256",
              "name": "projectSoldTokens",
              "type": "uint256"
            },
            {
              "internalType": "uint256",
              "name": "tokenPrice",
              "type": "uint256"
            },
            {
              "internalType": "uint256",
              "name": "exchangeRate",
              "type": "uint256"
            },
            {
              "internalType": "address",
              "name": "mainTokenAddress",
              "type": "address"
            },
            {
              "internalType": "uint256",
              "name": "softCap",
              "type": "uint256"
            },
            {
              "internalType": "uint256",
              "name": "hardCap",
              "type": "uint256"
            },
            {
              "internalType": "uint256",
              "name": "projectTotalTokens",
              "type": "uint256"
            },
            {
              "internalType": "uint256",
              "name": "maxAllocationPerUser",
              "type": "uint256"
            },
            {
              "internalType": "uint256",
              "name": "minAllocationPerUser",
              "type": "uint256"
            },
            {
              "internalType": "uint256",
              "name": "startDateTime",
              "type": "uint256"
            },
            {
              "internalType": "uint256",
              "name": "endDateTime",
              "type": "uint256"
            },
            {
              "internalType": "enum PoolStatus",
              "name": "status",
              "type": "uint8"
            }
          ],
          "internalType": "struct Pool.PoolData",
          "name": "poolData",
          "type": "tuple"
        }
      ],
      "stateMutability": "nonpayable",
      "type": "function"
    },
    {
      "inputs": [
        {
          "internalType": "address[]",
          "name": "investorsToWhitelist",
          "type": "address[]"
        }
      ],
      "name": "addInvestor",
      "outputs": [],
      "stateMutability": "nonpayable",
      "type": "function"
    },
    {
      "inputs": [],
      "name": "getState",
      "outputs": [
        {
          "internalType": "enum PoolStatus",
          "name": "updatedStatus",
          "type": "uint8"
        }
      ],
      "stateMutability": "nonpayable",
      "type": "function"
    },
    {
      "inputs": [
        {
          "internalType": "uint256",
          "name": "mainTokenAmount",
          "type": "uint256"
        }
      ],
      "name": "invest",
      "outputs": [],
      "stateMutability": "nonpayable",
      "type": "function"
    },
    {
      "inputs": [
        {
          "internalType": "address",
          "name": "walletTo",
          "type": "address"
        }
      ],
      "name": "retriveInverstor",
      "outputs": [],
      "stateMutability": "nonpayable",
      "type": "function"
    },
    {
      "inputs": [],
      "name": "retriveProject",
      "outputs": [],
      "stateMutability": "nonpayable",
      "type": "function"
    }
  ],
  "bytecode": "0x60806040523480156200001157600080fd5b50604051620043283803806200432883398181016040528101906200003791906200025a565b33600260006101000a81548173ffffffffffffffffffffffffffffffffffffffff021916908373ffffffffffffffffffffffffffffffffffffffff16021790555081600560006101000a81548173ffffffffffffffffffffffffffffffffffffffff021916908373ffffffffffffffffffffffffffffffffffffffff16021790555080600360006101000a81548173ffffffffffffffffffffffffffffffffffffffff021916908373ffffffffffffffffffffffffffffffffffffffff16021790555060646040516200010a9062000235565b620001169190620002ac565b604051809103906000f08015801562000133573d6000803e3d6000fd5b50600760006101000a81548173ffffffffffffffffffffffffffffffffffffffff021916908373ffffffffffffffffffffffffffffffffffffffff160217905550600660009054906101000a900473ffffffffffffffffffffffffffffffffffffffff16600660006101000a81548173ffffffffffffffffffffffffffffffffffffffff021916908373ffffffffffffffffffffffffffffffffffffffff1602179055506064600881905550606460098190555042600081905550620f424042620001ff9190620002c9565b6001819055506004600e819055506006600f81905550601460118190555060196010819055506003600a819055505050620003c1565b6118a78062002a8183390190565b6000815190506200025481620003a7565b92915050565b600080604083850312156200026e57600080fd5b60006200027e8582860162000243565b9250506020620002918582860162000243565b9150509250929050565b620002a68162000364565b82525050565b6000602082019050620002c360008301846200029b565b92915050565b6000620002d6826200035a565b9150620002e3836200035a565b9250827fffffffffffffffffffffffffffffffffffffffffffffffffffffffffffffffff038211156200031b576200031a62000378565b5b828201905092915050565b600062000333826200033a565b9050919050565b600073ffffffffffffffffffffffffffffffffffffffff82169050919050565b6000819050919050565b600062000371826200035a565b9050919050565b7f4e487b7100000000000000000000000000000000000000000000000000000000600052601160045260246000fd5b620003b28162000326565b8114620003be57600080fd5b50565b6126b080620003d16000396000f3fe608060405234801561001057600080fd5b50600436106100b0576000357c0100000000000000000000000000000000000000000000000000000000900480635140358f116100835780635140358f146101175780635d6f2b95146101335780635e9406e1146101515780638fa321111461016d578063fb29238b14610189576100b0565b80631865c57d146100b55780632afcf480146100d35780634b60ce77146100ef5780634f69ac521461010d575b600080fd5b6100bd6101a7565b6040516100ca9190612112565b60405180910390f35b6100ed60048036038101906100e89190611a20565b6107d6565b005b6100f7610cec565b60405161010491906120f7565b60405180910390f35b610115610d12565b005b610131600480360381019061012c919061198d565b61101b565b005b61013b6111fd565b60405161014891906120f7565b60405180910390f35b61016b60048036038101906101669190611a20565b611223565b005b610187600480360381019061018291906119b6565b6112bd565b005b610191611483565b60405161019e91906122ad565b60405180910390f35b600042600054111580156101bd57506001544211155b80156102495750600060048111156101fe577f4e487b7100000000000000000000000000000000000000000000000000000000600052602160045260246000fd5b601360009054906101000a900460ff166004811115610246577f4e487b7100000000000000000000000000000000000000000000000000000000600052602160045260246000fd5b14155b80156102d557506001600481111561028a577f4e487b7100000000000000000000000000000000000000000000000000000000600052602160045260246000fd5b601360009054906101000a900460ff1660048111156102d2577f4e487b7100000000000000000000000000000000000000000000000000000000600052602160045260246000fd5b14155b80156103605750600480811115610315577f4e487b7100000000000000000000000000000000000000000000000000000000600052602160045260246000fd5b601360009054906101000a900460ff16600481111561035d577f4e487b7100000000000000000000000000000000000000000000000000000000600052602160045260246000fd5b14155b156103bb576004601360006101000a81548160ff021916908360048111156103b1577f4e487b7100000000000000000000000000000000000000000000000000000000600052602160045260246000fd5b02179055506107c1565b6001544211801561044c575060006004811115610401577f4e487b7100000000000000000000000000000000000000000000000000000000600052602160045260246000fd5b601360009054906101000a900460ff166004811115610449577f4e487b7100000000000000000000000000000000000000000000000000000000600052602160045260246000fd5b14155b80156104d857506001600481111561048d577f4e487b7100000000000000000000000000000000000000000000000000000000600052602160045260246000fd5b601360009054906101000a900460ff1660048111156104d5577f4e487b7100000000000000000000000000000000000000000000000000000000600052602160045260246000fd5b14155b8015610564575060026004811115610519577f4e487b7100000000000000000000000000000000000000000000000000000000600052602160045260246000fd5b601360009054906101000a900460ff166004811115610561577f4e487b7100000000000000000000000000000000000000000000000000000000600052602160045260246000fd5b14155b156105bf576002601360006101000a81548160ff021916908360048111156105b5577f4e487b7100000000000000000000000000000000000000000000000000000000600052602160045260246000fd5b02179055506107c0565b60005442108015610650575060006004811115610605577f4e487b7100000000000000000000000000000000000000000000000000000000600052602160045260246000fd5b601360009054906101000a900460ff16600481111561064d577f4e487b7100000000000000000000000000000000000000000000000000000000600052602160045260246000fd5b14155b80156106dc575060016004811115610691577f4e487b7100000000000000000000000000000000000000000000000000000000600052602160045260246000fd5b601360009054906101000a900460ff1660048111156106d9577f4e487b7100000000000000000000000000000000000000000000000000000000600052602160045260246000fd5b14155b801561076857506003600481111561071d577f4e487b7100000000000000000000000000000000000000000000000000000000600052602160045260246000fd5b601360009054906101000a900460ff166004811115610765577f4e487b7100000000000000000000000000000000000000000000000000000000600052602160045260246000fd5b14155b156107bf576003601360006101000a81548160ff021916908360048111156107b9577f4e487b7100000000000000000000000000000000000000000000000000000000600052602160045260246000fd5b02179055505b5b5b601360009054906101000a900460ff16905090565b60006107e13361165e565b90508060010160149054906101000a900460ff16610834576040517f08c379a000000000000000000000000000000000000000000000000000000000815260040161082b906121cd565b60405180910390fd5b60048081111561086d577f4e487b7100000000000000000000000000000000000000000000000000000000600052602160045260246000fd5b6108756101a7565b60048111156108ad577f4e487b7100000000000000000000000000000000000000000000000000000000600052602160045260246000fd5b146108ed576040517f08c379a00000000000000000000000000000000000000000000000000000000081526004016108e49061212d565b60405180910390fd5b6000600a54836108fd91906123fd565b9050600e548260000154826109129190612376565b1015610953576040517f08c379a000000000000000000000000000000000000000000000000000000000815260040161094a9061218d565b60405180910390fd5b600f548260000154826109669190612376565b11156109a7576040517f08c379a000000000000000000000000000000000000000000000000000000000815260040161099e9061224d565b60405180910390fd5b601054601254846109b89190612376565b11156109f9576040517f08c379a00000000000000000000000000000000000000000000000000000000081526004016109f09061216d565b60405180910390fd5b6000600560009054906101000a900473ffffffffffffffffffffffffffffffffffffffff1673ffffffffffffffffffffffffffffffffffffffff1663dd62ed3e33600360009054906101000a900473ffffffffffffffffffffffffffffffffffffffff166040518363ffffffff167c0100000000000000000000000000000000000000000000000000000000028152600401610a9692919061206e565b60206040518083038186803b158015610aae57600080fd5b505afa158015610ac2573d6000803e3d6000fd5b505050506040513d601f19601f82011682018060405250810190610ae69190611a49565b905083811015610b2b576040517f08c379a0000000000000000000000000000000000000000000000000000000008152600401610b22906121ad565b60405180910390fd5b600854821115610b70576040517f08c379a0000000000000000000000000000000000000000000000000000000008152600401610b67906121ed565b60405180910390fd5b600560009054906101000a900473ffffffffffffffffffffffffffffffffffffffff1673ffffffffffffffffffffffffffffffffffffffff166323b872dd33600360009054906101000a900473ffffffffffffffffffffffffffffffffffffffff16876040518463ffffffff167c0100000000000000000000000000000000000000000000000000000000028152600401610c0d93929190612097565b602060405180830381600087803b158015610c2757600080fd5b505af1158015610c3b573d6000803e3d6000fd5b505050506040513d601f19601f82011682018060405250810190610c5f91906119f7565b508160086000828254610c729190612457565b9250508190555081836000016000828254610c8d9190612376565b925050819055508360126000828254610ca69190612376565b925050819055507f626ef9ed827bff9cb3ea92f0bc8d5b56069472f11f237d02de7a0a2ee39312633385604051610cde9291906120ce565b60405180910390a150505050565b600760009054906101000a900473ffffffffffffffffffffffffffffffffffffffff1681565b60026004811115610d4c577f4e487b7100000000000000000000000000000000000000000000000000000000600052602160045260246000fd5b610d546101a7565b6004811115610d8c577f4e487b7100000000000000000000000000000000000000000000000000000000600052602160045260246000fd5b14610dcc576040517f08c379a0000000000000000000000000000000000000000000000000000000008152600401610dc39061222d565b60405180910390fd5b600060125411610e11576040517f08c379a0000000000000000000000000000000000000000000000000000000008152600401610e089061214d565b60405180910390fd5b6000600560009054906101000a900473ffffffffffffffffffffffffffffffffffffffff1673ffffffffffffffffffffffffffffffffffffffff166370a08231600360009054906101000a900473ffffffffffffffffffffffffffffffffffffffff166040518263ffffffff167c0100000000000000000000000000000000000000000000000000000000028152600401610eac9190612053565b60206040518083038186803b158015610ec457600080fd5b505afa158015610ed8573d6000803e3d6000fd5b505050506040513d601f19601f82011682018060405250810190610efc9190611a49565b9050600560009054906101000a900473ffffffffffffffffffffffffffffffffffffffff1673ffffffffffffffffffffffffffffffffffffffff166323b872dd600360009054906101000a900473ffffffffffffffffffffffffffffffffffffffff16600260009054906101000a900473ffffffffffffffffffffffffffffffffffffffff16846040518463ffffffff167c0100000000000000000000000000000000000000000000000000000000028152600401610fbd93929190612097565b602060405180830381600087803b158015610fd757600080fd5b505af1158015610feb573d6000803e3d6000fd5b505050506040513d601f19601f8201168201806040525081019061100f91906119f7565b50600060128190555050565b60026004811115611055577f4e487b7100000000000000000000000000000000000000000000000000000000600052602160045260246000fd5b61105d6101a7565b6004811115611095577f4e487b7100000000000000000000000000000000000000000000000000000000600052602160045260246000fd5b146110d5576040517f08c379a00000000000000000000000000000000000000000000000000000000081526004016110cc9061222d565b60405180910390fd5b60006110e03361165e565b90506000816000015411611129576040517f08c379a00000000000000000000000000000000000000000000000000000000081526004016111209061228d565b60405180910390fd5b600760009054906101000a900473ffffffffffffffffffffffffffffffffffffffff1673ffffffffffffffffffffffffffffffffffffffff1663a9059cbb8383600001546040518363ffffffff167c01000000000000000000000000000000000000000000000000000000000281526004016111a69291906120ce565b602060405180830381600087803b1580156111c057600080fd5b505af11580156111d4573d6000803e3d6000fd5b505050506040513d601f19601f820116820180604052508101906111f891906119f7565b505050565b600560009054906101000a900473ffffffffffffffffffffffffffffffffffffffff1681565b600260009054906101000a900473ffffffffffffffffffffffffffffffffffffffff1673ffffffffffffffffffffffffffffffffffffffff163373ffffffffffffffffffffffffffffffffffffffff16146112b3576040517f08c379a00000000000000000000000000000000000000000000000000000000081526004016112aa9061220d565b60405180910390fd5b8060018190555050565b600260009054906101000a900473ffffffffffffffffffffffffffffffffffffffff1673ffffffffffffffffffffffffffffffffffffffff163373ffffffffffffffffffffffffffffffffffffffff161461134d576040517f08c379a00000000000000000000000000000000000000000000000000000000081526004016113449061226d565b60405180910390fd5b60005b815181101561147f57600b6040518060600160405280600081526020018484815181106113a6577f4e487b7100000000000000000000000000000000000000000000000000000000600052603260045260246000fd5b602002602001015173ffffffffffffffffffffffffffffffffffffffff1681526020016001151581525090806001815401808255809150506001900390600052602060002090600202016000909190919091506000820151816000015560208201518160010160006101000a81548173ffffffffffffffffffffffffffffffffffffffff021916908373ffffffffffffffffffffffffffffffffffffffff16021790555060408201518160010160146101000a81548160ff021916908315150217905550505080806114779061251c565b915050611350565b5050565b61148b6117ed565b604051806101a00160405280600b805480602002602001604051908101604052809291908181526020016000905b828210156115665783829060005260206000209060020201604051806060016040529081600082015481526020016001820160009054906101000a900473ffffffffffffffffffffffffffffffffffffffff1673ffffffffffffffffffffffffffffffffffffffff1673ffffffffffffffffffffffffffffffffffffffff1681526020016001820160149054906101000a900460ff161515151581525050815260200190600101906114b9565b50505050815260200160085460095461157f9190612457565b8152602001600a54606461159391906123cc565b8152602001600a548152602001600460009054906101000a900473ffffffffffffffffffffffffffffffffffffffff1673ffffffffffffffffffffffffffffffffffffffff168152602001601154815260200160105481526020016009548152602001600f548152602001600e5481526020016000548152602001600154815260200161161e6101a7565b6004811115611656577f4e487b7100000000000000000000000000000000000000000000000000000000600052602160045260246000fd5b815250905090565b600080600090505b600b80549050811015611775578273ffffffffffffffffffffffffffffffffffffffff16600b82815481106116c4577f4e487b7100000000000000000000000000000000000000000000000000000000600052603260045260246000fd5b906000526020600020906002020160010160009054906101000a900473ffffffffffffffffffffffffffffffffffffffff1673ffffffffffffffffffffffffffffffffffffffff16141561176257600b818154811061174c577f4e487b7100000000000000000000000000000000000000000000000000000000600052603260045260246000fd5b90600052602060002090600202019150506117e8565b808061176d9061251c565b915050611666565b5081600c60010160006101000a81548173ffffffffffffffffffffffffffffffffffffffff021916908373ffffffffffffffffffffffffffffffffffffffff1602179055506000600c60010160146101000a81548160ff0219169083151502179055506000600c60000181905550600c90505b919050565b604051806101a0016040528060608152602001600081526020016000815260200160008152602001600073ffffffffffffffffffffffffffffffffffffffff168152602001600081526020016000815260200160008152602001600081526020016000815260200160008152602001600081526020016000600481111561189d577f4e487b7100000000000000000000000000000000000000000000000000000000600052602160045260246000fd5b81525090565b60006118b66118b184612300565b6122cf565b905080838252602082019050828560208602820111156118d557600080fd5b60005b8581101561190557816118eb888261190f565b8452602084019350602083019250506001810190506118d8565b5050509392505050565b60008135905061191e81612635565b92915050565b600082601f83011261193557600080fd5b81356119458482602086016118a3565b91505092915050565b60008151905061195d8161264c565b92915050565b60008135905061197281612663565b92915050565b60008151905061198781612663565b92915050565b60006020828403121561199f57600080fd5b60006119ad8482850161190f565b91505092915050565b6000602082840312156119c857600080fd5b600082013567ffffffffffffffff8111156119e257600080fd5b6119ee84828501611924565b91505092915050565b600060208284031215611a0957600080fd5b6000611a178482850161194e565b91505092915050565b600060208284031215611a3257600080fd5b6000611a4084828501611963565b91505092915050565b600060208284031215611a5b57600080fd5b6000611a6984828501611978565b91505092915050565b6000611a7e8383611eda565b60608301905092915050565b611a938161248b565b82525050565b611aa28161248b565b82525050565b6000611ab38261233c565b611abd8185612354565b9350611ac88361232c565b8060005b83811015611af9578151611ae08882611a72565b9750611aeb83612347565b925050600181019050611acc565b5085935050505092915050565b611b0f8161249d565b82525050565b611b1e816124e6565b82525050565b611b2d8161250a565b82525050565b611b3c8161250a565b82525050565b6000611b4f601383612365565b91507f506f6f6c206973206e6f74206f6e676f696e67000000000000000000000000006000830152602082019050919050565b6000611b8f600e83612365565b91507f4e6f206d61696e20746f6b656e730000000000000000000000000000000000006000830152602082019050919050565b6000611bcf601383612365565b91507f48617264436170206973206578636565646564000000000000000000000000006000830152602082019050919050565b6000611c0f602083612365565b91507f4d696e696d756e20616c6c6f636174696f6e206e6f74207361746973666965646000830152602082019050919050565b6000611c4f602283612365565b91507f436865636b2074686520696e76657374656420746f6b656e20616c6c6f77616e60008301527f63650000000000000000000000000000000000000000000000000000000000006020830152604082019050919050565b6000611cb5601783612365565b91507f4e6f742077686974656c697374656420616464726573730000000000000000006000830152602082019050919050565b6000611cf5601b83612365565b91507f4e6f7420656e6f75676820617661696c61626c6520746f6b656e7300000000006000830152602082019050919050565b6000611d35602683612365565b91507f4f6e6c7920746865206f776e6572206f662074686520706f6f6c2063616e206560008301527f64697420697400000000000000000000000000000000000000000000000000006020830152604082019050919050565b6000611d9b601483612365565b91507f506f6f6c206973206e6f742066696e69736865640000000000000000000000006000830152602082019050919050565b6000611ddb601b83612365565b91507f4d6178696d756d20616c6c6f636174696f6e20657863656564656400000000006000830152602082019050919050565b6000611e1b602683612365565b91507f4f6e6c792074686520706f6f6c206f776e65722077686974656c69737420776160008301527f6c6c6574732e00000000000000000000000000000000000000000000000000006020830152604082019050919050565b6000611e81602483612365565b91507f496e766573746f7220646964206e6f7420696e7665737420696e20746869732060008301527f506f6f6c000000000000000000000000000000000000000000000000000000006020830152604082019050919050565b606082016000820151611ef06000850182612035565b506020820151611f036020850182611a8a565b506040820151611f166040850182611b06565b50505050565b60006101a0830160008301518482036000860152611f3a8282611aa8565b9150506020830151611f4f6020860182612035565b506040830151611f626040860182612035565b506060830151611f756060860182612035565b506080830151611f886080860182611a8a565b5060a0830151611f9b60a0860182612035565b5060c0830151611fae60c0860182612035565b5060e0830151611fc160e0860182612035565b50610100830151611fd6610100860182612035565b50610120830151611feb610120860182612035565b50610140830151612000610140860182612035565b50610160830151612015610160860182612035565b5061018083015161202a610180860182611b24565b508091505092915050565b61203e816124dc565b82525050565b61204d816124dc565b82525050565b60006020820190506120686000830184611a99565b92915050565b60006040820190506120836000830185611a99565b6120906020830184611a99565b9392505050565b60006060820190506120ac6000830186611a99565b6120b96020830185611a99565b6120c66040830184612044565b949350505050565b60006040820190506120e36000830185611a99565b6120f06020830184612044565b9392505050565b600060208201905061210c6000830184611b15565b92915050565b60006020820190506121276000830184611b33565b92915050565b6000602082019050818103600083015261214681611b42565b9050919050565b6000602082019050818103600083015261216681611b82565b9050919050565b6000602082019050818103600083015261218681611bc2565b9050919050565b600060208201905081810360008301526121a681611c02565b9050919050565b600060208201905081810360008301526121c681611c42565b9050919050565b600060208201905081810360008301526121e681611ca8565b9050919050565b6000602082019050818103600083015261220681611ce8565b9050919050565b6000602082019050818103600083015261222681611d28565b9050919050565b6000602082019050818103600083015261224681611d8e565b9050919050565b6000602082019050818103600083015261226681611dce565b9050919050565b6000602082019050818103600083015261228681611e0e565b9050919050565b600060208201905081810360008301526122a681611e74565b9050919050565b600060208201905081810360008301526122c78184611f1c565b905092915050565b6000604051905081810181811067ffffffffffffffff821117156122f6576122f56125f2565b5b8060405250919050565b600067ffffffffffffffff82111561231b5761231a6125f2565b5b602082029050602081019050919050565b6000819050602082019050919050565b600081519050919050565b6000602082019050919050565b600082825260208201905092915050565b600082825260208201905092915050565b6000612381826124dc565b915061238c836124dc565b9250827fffffffffffffffffffffffffffffffffffffffffffffffffffffffffffffffff038211156123c1576123c0612565565b5b828201905092915050565b60006123d7826124dc565b91506123e2836124dc565b9250826123f2576123f1612594565b5b828204905092915050565b6000612408826124dc565b9150612413836124dc565b9250817fffffffffffffffffffffffffffffffffffffffffffffffffffffffffffffffff048311821515161561244c5761244b612565565b5b828202905092915050565b6000612462826124dc565b915061246d836124dc565b9250828210156124805761247f612565565b5b828203905092915050565b6000612496826124bc565b9050919050565b60008115159050919050565b60008190506124b782612621565b919050565b600073ffffffffffffffffffffffffffffffffffffffff82169050919050565b6000819050919050565b60006124f1826124f8565b9050919050565b6000612503826124bc565b9050919050565b6000612515826124a9565b9050919050565b6000612527826124dc565b91507fffffffffffffffffffffffffffffffffffffffffffffffffffffffffffffffff82141561255a57612559612565565b5b600182019050919050565b7f4e487b7100000000000000000000000000000000000000000000000000000000600052601160045260246000fd5b7f4e487b7100000000000000000000000000000000000000000000000000000000600052601260045260246000fd5b7f4e487b7100000000000000000000000000000000000000000000000000000000600052602160045260246000fd5b7f4e487b7100000000000000000000000000000000000000000000000000000000600052604160045260246000fd5b60058110612632576126316125c3565b5b50565b61263e8161248b565b811461264957600080fd5b50565b6126558161249d565b811461266057600080fd5b50565b61266c816124dc565b811461267757600080fd5b5056fea2646970667358221220c40a1a188ec45e792a614c2b995989d4359e028a0031273c7c58a741297784e664736f6c6343000800003360806040523480156200001157600080fd5b50604051620018a7380380620018a7833981810160405281019062000037919062000355565b6040518060400160405280600781526020017f4d79546f6b656e000000000000000000000000000000000000000000000000008152506040518060400160405280600381526020017f4d544b00000000000000000000000000000000000000000000000000000000008152508160039080519060200190620000bb9291906200028e565b508060049080519060200190620000d49291906200028e565b505050620000f23382620000f9640100000000026401000000009004565b5062000539565b600073ffffffffffffffffffffffffffffffffffffffff168273ffffffffffffffffffffffffffffffffffffffff1614156200016c576040517f08c379a00000000000000000000000000000000000000000000000000000000081526004016200016390620003d4565b60405180910390fd5b620001896000838362000284640100000000026401000000009004565b80600260008282546200019d919062000424565b92505081905550806000808473ffffffffffffffffffffffffffffffffffffffff1673ffffffffffffffffffffffffffffffffffffffff1681526020019081526020016000206000828254620001f4919062000424565b925050819055508173ffffffffffffffffffffffffffffffffffffffff16600073ffffffffffffffffffffffffffffffffffffffff167fddf252ad1be2c89b69c2b068fc378daa952ba7f163c4a11628f55a4df523b3ef836040516200025b9190620003f6565b60405180910390a3620002806000838362000289640100000000026401000000009004565b5050565b505050565b505050565b8280546200029c906200048b565b90600052602060002090601f016020900481019282620002c057600085556200030c565b82601f10620002db57805160ff19168380011785556200030c565b828001600101855582156200030c579182015b828111156200030b578251825591602001919060010190620002ee565b5b5090506200031b91906200031f565b5090565b5b808211156200033a57600081600090555060010162000320565b5090565b6000815190506200034f816200051f565b92915050565b6000602082840312156200036857600080fd5b600062000378848285016200033e565b91505092915050565b600062000390601f8362000413565b91507f45524332303a206d696e7420746f20746865207a65726f2061646472657373006000830152602082019050919050565b620003ce8162000481565b82525050565b60006020820190508181036000830152620003ef8162000381565b9050919050565b60006020820190506200040d6000830184620003c3565b92915050565b600082825260208201905092915050565b6000620004318262000481565b91506200043e8362000481565b9250827fffffffffffffffffffffffffffffffffffffffffffffffffffffffffffffffff03821115620004765762000475620004c1565b5b828201905092915050565b6000819050919050565b60006002820490506001821680620004a457607f821691505b60208210811415620004bb57620004ba620004f0565b5b50919050565b7f4e487b7100000000000000000000000000000000000000000000000000000000600052601160045260246000fd5b7f4e487b7100000000000000000000000000000000000000000000000000000000600052602260045260246000fd5b6200052a8162000481565b81146200053657600080fd5b50565b61135e80620005496000396000f3fe608060405234801561001057600080fd5b50600436106100c6576000357c010000000000000000000000000000000000000000000000000000000090048063395093511161008e578063395093511461018557806370a08231146101b557806395d89b41146101e5578063a457c2d714610203578063a9059cbb14610233578063dd62ed3e14610263576100c6565b806306fdde03146100cb578063095ea7b3146100e957806318160ddd1461011957806323b872dd14610137578063313ce56714610167575b600080fd5b6100d3610293565b6040516100e09190611027565b60405180910390f35b61010360048036038101906100fe9190610ca0565b610325565b604051610110919061100c565b60405180910390f35b610121610343565b60405161012e9190611129565b60405180910390f35b610151600480360381019061014c9190610c51565b61034d565b60405161015e919061100c565b60405180910390f35b61016f610445565b60405161017c9190611144565b60405180910390f35b61019f600480360381019061019a9190610ca0565b61044e565b6040516101ac919061100c565b60405180910390f35b6101cf60048036038101906101ca9190610bec565b6104fa565b6040516101dc9190611129565b60405180910390f35b6101ed610542565b6040516101fa9190611027565b60405180910390f35b61021d60048036038101906102189190610ca0565b6105d4565b60405161022a919061100c565b60405180910390f35b61024d60048036038101906102489190610ca0565b6106bf565b60405161025a919061100c565b60405180910390f35b61027d60048036038101906102789190610c15565b6106dd565b60405161028a9190611129565b60405180910390f35b6060600380546102a290611259565b80601f01602080910402602001604051908101604052809291908181526020018280546102ce90611259565b801561031b5780601f106102f05761010080835404028352916020019161031b565b820191906000526020600020905b8154815290600101906020018083116102fe57829003601f168201915b5050505050905090565b6000610339610332610764565b848461076c565b6001905092915050565b6000600254905090565b600061035a848484610937565b6000600160008673ffffffffffffffffffffffffffffffffffffffff1673ffffffffffffffffffffffffffffffffffffffff16815260200190815260200160002060006103a5610764565b73ffffffffffffffffffffffffffffffffffffffff1673ffffffffffffffffffffffffffffffffffffffff16815260200190815260200160002054905082811015610425576040517f08c379a000000000000000000000000000000000000000000000000000000000815260040161041c906110a9565b60405180910390fd5b61043985610431610764565b85840361076c565b60019150509392505050565b60006012905090565b60006104f061045b610764565b848460016000610469610764565b73ffffffffffffffffffffffffffffffffffffffff1673ffffffffffffffffffffffffffffffffffffffff16815260200190815260200160002060008873ffffffffffffffffffffffffffffffffffffffff1673ffffffffffffffffffffffffffffffffffffffff168152602001908152602001600020546104eb919061117b565b61076c565b6001905092915050565b60008060008373ffffffffffffffffffffffffffffffffffffffff1673ffffffffffffffffffffffffffffffffffffffff168152602001908152602001600020549050919050565b60606004805461055190611259565b80601f016020809104026020016040519081016040528092919081815260200182805461057d90611259565b80156105ca5780601f1061059f576101008083540402835291602001916105ca565b820191906000526020600020905b8154815290600101906020018083116105ad57829003601f168201915b5050505050905090565b600080600160006105e3610764565b73ffffffffffffffffffffffffffffffffffffffff1673ffffffffffffffffffffffffffffffffffffffff16815260200190815260200160002060008573ffffffffffffffffffffffffffffffffffffffff1673ffffffffffffffffffffffffffffffffffffffff168152602001908152602001600020549050828110156106a0576040517f08c379a000000000000000000000000000000000000000000000000000000000815260040161069790611109565b60405180910390fd5b6106b46106ab610764565b8585840361076c565b600191505092915050565b60006106d36106cc610764565b8484610937565b6001905092915050565b6000600160008473ffffffffffffffffffffffffffffffffffffffff1673ffffffffffffffffffffffffffffffffffffffff16815260200190815260200160002060008373ffffffffffffffffffffffffffffffffffffffff1673ffffffffffffffffffffffffffffffffffffffff16815260200190815260200160002054905092915050565b600033905090565b600073ffffffffffffffffffffffffffffffffffffffff168373ffffffffffffffffffffffffffffffffffffffff1614156107dc576040517f08c379a00000000000000000000000000000000000000000000000000000000081526004016107d3906110e9565b60405180910390fd5b600073ffffffffffffffffffffffffffffffffffffffff168273ffffffffffffffffffffffffffffffffffffffff16141561084c576040517f08c379a000000000000000000000000000000000000000000000000000000000815260040161084390611069565b60405180910390fd5b80600160008573ffffffffffffffffffffffffffffffffffffffff1673ffffffffffffffffffffffffffffffffffffffff16815260200190815260200160002060008473ffffffffffffffffffffffffffffffffffffffff1673ffffffffffffffffffffffffffffffffffffffff168152602001908152602001600020819055508173ffffffffffffffffffffffffffffffffffffffff168373ffffffffffffffffffffffffffffffffffffffff167f8c5be1e5ebec7d5bd14f71427d1e84f3dd0314c0f7b2291e5b200ac8c7c3b9258360405161092a9190611129565b60405180910390a3505050565b600073ffffffffffffffffffffffffffffffffffffffff168373ffffffffffffffffffffffffffffffffffffffff1614156109a7576040517f08c379a000000000000000000000000000000000000000000000000000000000815260040161099e906110c9565b60405180910390fd5b600073ffffffffffffffffffffffffffffffffffffffff168273ffffffffffffffffffffffffffffffffffffffff161415610a17576040517f08c379a0000000000000000000000000000000000000000000000000000000008152600401610a0e90611049565b60405180910390fd5b610a22838383610bb8565b60008060008573ffffffffffffffffffffffffffffffffffffffff1673ffffffffffffffffffffffffffffffffffffffff16815260200190815260200160002054905081811015610aa8576040517f08c379a0000000000000000000000000000000000000000000000000000000008152600401610a9f90611089565b60405180910390fd5b8181036000808673ffffffffffffffffffffffffffffffffffffffff1673ffffffffffffffffffffffffffffffffffffffff16815260200190815260200160002081905550816000808573ffffffffffffffffffffffffffffffffffffffff1673ffffffffffffffffffffffffffffffffffffffff1681526020019081526020016000206000828254610b3b919061117b565b925050819055508273ffffffffffffffffffffffffffffffffffffffff168473ffffffffffffffffffffffffffffffffffffffff167fddf252ad1be2c89b69c2b068fc378daa952ba7f163c4a11628f55a4df523b3ef84604051610b9f9190611129565b60405180910390a3610bb2848484610bbd565b50505050565b505050565b505050565b600081359050610bd1816112fa565b92915050565b600081359050610be681611311565b92915050565b600060208284031215610bfe57600080fd5b6000610c0c84828501610bc2565b91505092915050565b60008060408385031215610c2857600080fd5b6000610c3685828601610bc2565b9250506020610c4785828601610bc2565b9150509250929050565b600080600060608486031215610c6657600080fd5b6000610c7486828701610bc2565b9350506020610c8586828701610bc2565b9250506040610c9686828701610bd7565b9150509250925092565b60008060408385031215610cb357600080fd5b6000610cc185828601610bc2565b9250506020610cd285828601610bd7565b9150509250929050565b610ce5816111e3565b82525050565b6000610cf68261115f565b610d00818561116a565b9350610d10818560208601611226565b610d19816112e9565b840191505092915050565b6000610d3160238361116a565b91507f45524332303a207472616e7366657220746f20746865207a65726f206164647260008301527f65737300000000000000000000000000000000000000000000000000000000006020830152604082019050919050565b6000610d9760228361116a565b91507f45524332303a20617070726f766520746f20746865207a65726f20616464726560008301527f73730000000000000000000000000000000000000000000000000000000000006020830152604082019050919050565b6000610dfd60268361116a565b91507f45524332303a207472616e7366657220616d6f756e742065786365656473206260008301527f616c616e636500000000000000000000000000000000000000000000000000006020830152604082019050919050565b6000610e6360288361116a565b91507f45524332303a207472616e7366657220616d6f756e742065786365656473206160008301527f6c6c6f77616e63650000000000000000000000000000000000000000000000006020830152604082019050919050565b6000610ec960258361116a565b91507f45524332303a207472616e736665722066726f6d20746865207a65726f20616460008301527f64726573730000000000000000000000000000000000000000000000000000006020830152604082019050919050565b6000610f2f60248361116a565b91507f45524332303a20617070726f76652066726f6d20746865207a65726f2061646460008301527f72657373000000000000000000000000000000000000000000000000000000006020830152604082019050919050565b6000610f9560258361116a565b91507f45524332303a2064656372656173656420616c6c6f77616e63652062656c6f7760008301527f207a65726f0000000000000000000000000000000000000000000000000000006020830152604082019050919050565b610ff78161120f565b82525050565b61100681611219565b82525050565b60006020820190506110216000830184610cdc565b92915050565b600060208201905081810360008301526110418184610ceb565b905092915050565b6000602082019050818103600083015261106281610d24565b9050919050565b6000602082019050818103600083015261108281610d8a565b9050919050565b600060208201905081810360008301526110a281610df0565b9050919050565b600060208201905081810360008301526110c281610e56565b9050919050565b600060208201905081810360008301526110e281610ebc565b9050919050565b6000602082019050818103600083015261110281610f22565b9050919050565b6000602082019050818103600083015261112281610f88565b9050919050565b600060208201905061113e6000830184610fee565b92915050565b60006020820190506111596000830184610ffd565b92915050565b600081519050919050565b600082825260208201905092915050565b60006111868261120f565b91506111918361120f565b9250827fffffffffffffffffffffffffffffffffffffffffffffffffffffffffffffffff038211156111c6576111c561128b565b5b828201905092915050565b60006111dc826111ef565b9050919050565b60008115159050919050565b600073ffffffffffffffffffffffffffffffffffffffff82169050919050565b6000819050919050565b600060ff82169050919050565b60005b83811015611244578082015181840152602081019050611229565b83811115611253576000848401525b50505050565b6000600282049050600182168061127157607f821691505b60208210811415611285576112846112ba565b5b50919050565b7f4e487b7100000000000000000000000000000000000000000000000000000000600052601160045260246000fd5b7f4e487b7100000000000000000000000000000000000000000000000000000000600052602260045260246000fd5b6000601f19601f8301169050919050565b611303816111d1565b811461130e57600080fd5b50565b61131a8161120f565b811461132557600080fd5b5056fea264697066735822122068b63e5b1f4f0b64a0ad32abb8a9ddb3bf2943628260ba8d274a4cd18a3ff14b64736f6c63430008000033",
  "immutableReferences": {},
  "source": "// SPDX-License-Identifier: GPL-3.0\npragma solidity >=0.4.16 <0.9.0;\n\nimport \"./MyToken.sol\";\nimport \"@openzeppelin/contracts/token/ERC20/ERC20.sol\";\n\nenum PoolStatus { Cancelled , Paused, Finished, Upcoming, Ongoing }\n\ncontract Pool {\n\n    // Log the event about an invest\t\n    event LogInvestMade(address investor, uint amount);\n\n    struct Investor {\n        uint projectTokenAmount; \n        address wallet; \n        bool isWhitelisted;\n     }\n    \n    struct PoolData {\n        Investor [] investors;\n        uint projectSoldTokens;\n        uint tokenPrice;\n        uint exchangeRate;\n        \n        address mainTokenAddress;\n        \n        uint softCap;\n        uint hardCap;\n        \n        uint projectTotalTokens;\n        uint maxAllocationPerUser;\n        uint minAllocationPerUser;\n        \n        uint startDateTime;\n        uint endDateTime;\n        \n        PoolStatus status;\n    }\n    \n    uint startDateTime;\n    uint endDateTime;\n    \n    address poolOwner;\n\n    address walletAddress;       // where investors tokens go\n   \n    address mainCoinAddress;      // = 0xa131AD247055FD2e2aA8b156A11bdEc81b9eAD95; // address of investors tokens\n    ERC20 public mainCoinToken;\n\n    address projectTokenAddress;  // = 0xa131AD247055FD2e2aA8b156A11bdEc81b9eAD95; // address of offered tokens\n    ERC20 public projectToken;\n    uint projectAvailableTokens;\n    uint projectTotalTokens;\n    \n    uint projectTokenPerMainToken; // exchange rate\n    \n    // mapping (address => Investor) investors;  can not be a map as we need to return them in getPoolData\n    Investor [] investors;\n    Investor dummyInvestor; // refrence used for getInvestor if it is not found\n    \n    uint    minAllocationPerUser;\n    uint    maxAllocationPerUser;\n    \n    uint    hardCap; // how much to raise\n    uint    softCap; // how much it will be accepted as a successful IDO\n    uint    collectedMainTokens;  // how much is being raised\n    \n    PoolStatus status;\n\n\n    // Should add more parameters and not hardcode them in the code, but for easy testing\n    constructor (address _mainCoinAddress, address _walletAddress) {    \n        poolOwner       = msg.sender;\n         \n        mainCoinToken   = MyToken(_mainCoinAddress);   // This is an existing crypto currency or token for investors, should not be created here as projectToken\n        walletAddress   = _walletAddress;              // where investors main tokens go\n        \n        projectToken           = new MyToken(100); // project offers ERC-20 compliance tokens \n        projectTokenAddress    = address(projectTokenAddress);\n        projectAvailableTokens = 100;\n        projectTotalTokens     = 100;\n         \n        startDateTime   = block.timestamp;\n        endDateTime     = block.timestamp + 1000000; //_poolTime;\n        \n        minAllocationPerUser = 4; \n        maxAllocationPerUser = 6; \n        \n        softCap = 20;\n        hardCap = 25;\n        \n        projectTokenPerMainToken = 3;\n    }\n\n    /** \n     * @dev Edit the pool data. Only editing endDateTime, should add the rest of the parameters.\n     */\n    function editPoolData(uint _endDateTime) public {\n\trequire(msg.sender == poolOwner,\"Only the owner of the pool can edit it\");\n\t\n\tendDateTime = _endDateTime;\n    }\n    \n    /** \n     * @dev Get the pool data.\n     */\n    function getPoolData() public returns (PoolData memory poolData) {\n      \n        return PoolData({\n            investors: investors,\n            projectSoldTokens: projectTotalTokens - projectAvailableTokens,\n            tokenPrice: 1*(10**2)/projectTokenPerMainToken, // returns main token in cents\n            exchangeRate: projectTokenPerMainToken,\n            mainTokenAddress: mainCoinAddress,\n            softCap: softCap,\n            hardCap: hardCap,\n            projectTotalTokens: projectTotalTokens,\n            maxAllocationPerUser: maxAllocationPerUser,\n            minAllocationPerUser: minAllocationPerUser,\n            status: getState(),\n            startDateTime: startDateTime,\n            endDateTime: endDateTime\n        });\n    }\n    \n    function addInvestor(address [] memory investorsToWhitelist) public {\n        require(\n            msg.sender == poolOwner,\n            \"Only the pool owner whitelist wallets.\"\n        );\n        \n        for (uint i=0; i < investorsToWhitelist.length; i++) {\n            investors.push(Investor({\n                wallet: investorsToWhitelist[i],\n                projectTokenAmount: 0,\n                isWhitelisted: true\n            }));\n        }\n        \n    }\n    \n    function getInvestor(address investor) private returns (Investor storage investorRef) {\n          for (uint i=0; i < investors.length; i++) {\n            if (investors[i].wallet == investor)\n                return investors[i];\n        }\n        \n        dummyInvestor.wallet = investor;\n        dummyInvestor.isWhitelisted = false;\n        dummyInvestor.projectTokenAmount = 0;\n        \n        return dummyInvestor;\n    }\n    \n    function getState() public returns (PoolStatus updatedStatus) {\n        if (startDateTime <= block.timestamp && block.timestamp <= endDateTime \n            && status != PoolStatus.Cancelled && status != PoolStatus.Paused && status != PoolStatus.Ongoing)\n            status = PoolStatus.Ongoing;\n        else if (block.timestamp > endDateTime \n                 && status != PoolStatus.Cancelled && status != PoolStatus.Paused && status != PoolStatus.Finished) \n            status = PoolStatus.Finished;\n        else if (block.timestamp < startDateTime \n                 && status != PoolStatus.Cancelled && status != PoolStatus.Paused && status != PoolStatus.Upcoming)\n            status = PoolStatus.Upcoming;\n        \n        return status;\n    }\n    \n    function invest(uint mainTokenAmount) public {\n        Investor storage investor = getInvestor(msg.sender);    \n        require(investor.isWhitelisted, \"Not whitelisted address\");\n        \n        require(getState() == PoolStatus.Ongoing, \"Pool is not ongoing\");\n        \n        uint projectTokenAmount = mainTokenAmount * projectTokenPerMainToken;\n        \n    \n        \n        require(projectTokenAmount + investor.projectTokenAmount >= minAllocationPerUser, \"Minimun allocation not satisfied\");\n        require(projectTokenAmount + investor.projectTokenAmount <= maxAllocationPerUser, \"Maximum allocation exceeded\");\n        require(mainTokenAmount + collectedMainTokens <= hardCap, \"HardCap is exceeded\");\n        \n        // the investor have approved the mainTokenAmount amount by calling the approve function beforehand for mainCoinToken\n        uint allowed = ERC20(mainCoinToken).allowance(msg.sender, walletAddress);\n        require(allowed >= mainTokenAmount, \"Check the invested token allowance\");\n        \n        require(projectTokenAmount <= projectAvailableTokens, \"Not enough available tokens\");\n\n        ERC20(mainCoinToken).transferFrom(msg.sender, walletAddress, mainTokenAmount);\n\n        projectAvailableTokens -= projectTokenAmount;\n        investor.projectTokenAmount += projectTokenAmount;\n        collectedMainTokens += mainTokenAmount;\n\n\temit LogInvestMade(msg.sender, mainTokenAmount);\t\n    }\n    \n    function retriveInverstor(address walletTo) public {\n        require(getState() == PoolStatus.Finished, \"Pool is not finished\");\n        \n        Investor storage investor = getInvestor(msg.sender);      \n        \n        require(investor.projectTokenAmount > 0, \"Investor did not invest in this Pool\");\n        \n        ERC20(projectToken).transfer(walletTo, investor.projectTokenAmount);\n    }\n    \n    function retriveProject() public {\n        require(getState() == PoolStatus.Finished, \"Pool is not finished\");\n        require(collectedMainTokens > 0, \"No main tokens\");\n        \n        uint total = ERC20(mainCoinToken).balanceOf(walletAddress);\n        ERC20(mainCoinToken).transferFrom(walletAddress, poolOwner, total);\n        collectedMainTokens = 0;\n    }\n}\n",
  "sourcePath": "/home/ernesto/Documents/solidity/ido_pool/contracts/Pool.sol",
  "compiler": {
    "name": "solc",
    "version": "0.8.0+commit.c7dfd78e.Linux.g++"
  },
  "schemaVersion": "3.4.2",
  "updatedAt": "2021-07-26T01:11:02.212Z",
  "networkType": "ethereum",
  "devdoc": {
    "kind": "dev",
    "methods": {
      "editPoolData(uint256)": {
        "details": "Edit the pool data. Only editing endDateTime, should add the rest of the parameters."
      },
      "getPoolData()": {
        "details": "Get the pool data."
      }
    },
    "version": 1
  },
  "userdoc": {
    "kind": "user",
    "methods": {},
    "version": 1
  }
}